:100000000C942A000C9453000C946F000C948B00F9
:100010000C94A7000C94A7000C94A7000C94A700C4
:100020000C94A7000C94A7000C94A7000C94A700B4
:100030000C94A7000C94A7000C94A7000C94A700A4
:100040000C94A7000C94A7000C94A7000C94A70094
:100050000C94A70011241FBECFE5D8E0DEBFCDBFB2
:0C0060000E9436000C943400F894FFCF8E
:10006C0085B78D6085BF85B78D7F85BF84B78F7B46
:10007C0084BF8BB7806E8BBF789481B3806E81BB4D
:10008C0082B38F7182BB2FEF89E698E121508040BB
:0A009C009040E1F700C00000F3CF30
:1000A6001F920F920FB60F9211242F938F939F9347
:1000B60082B3806282BB2FEF89E698E121508040AF
:1000C6009040E1F700C000009F918F912F910F9013
:0800D6000FBE0F901F9018955A
:1000DE001F920F920FB60F9211242F938F939F930F
:1000EE0082B3806482BB2FEF89E698E12150804075
:1000FE009040E1F700C000009F918F912F910F90DB
:08010E000FBE0F901F90189521
:100116001F920F920FB60F9211242F938F939F93D6
:1001260082B3806882BB2FEF89E698E12150804038
:100136009040E1F700C000009F918F912F910F90A2
:080146000FBE0F901F901895E9
:04014E000C9400000D
:00000001FF
