S01700004763634170706C69636174696F6E312E737265635B
S11300000C942A000C9434000C9434000C943400A6
S11300100C9434000C9434000C9434000C9434008C
S11300200C9434000C9434000C9434000C9434007C
S11300300C9434000C9434000C9434000C9434006C
S11300400C9434000C9434000C9434000C9434005C
S11300500C94340011241FBECFE5D8E0DEBFCDBF21
S11300600E9436000C941B010C9400008FEF90E06A
S11300709BBB8ABB8BB39CB381609CBB8BBB2FE9BE
S113008086E891E0215080409040E1F700C00000F4
S11300908BB39CB382609CBB8BBB2FE986E891E059
S11300A0215080409040E1F700C000008BB39CB326
S11300B084609CBB8BBB2FE986E891E02150804093
S11300C09040E1F700C000008BB39CB388609CBBF8
S11300D08BBB2FE986E891E0215080409040E1F706
S11300E000C000008BB39CB380619CBB8BBB2FE929
S11300F086E891E0215080409040E1F700C0000084
S11301008BB39CB380629CBB8BBB2FE986E891E0E8
S1130110215080409040E1F700C000008BB39CB3B5
S113012080649CBB8BBB2FE986E891E02150804022
S11301309040E1F700C000008BB39CB380689CBB87
S11301408BBB2FE986E891E0215080409040E1F795
S113015000C000008BB39CB38F779CBB8BBB2FE993
S113016086E891E0215080409040E1F700C0000013
S11301708BB39CB38F7B9CBB8BBB2FE986E891E050
S1130180215080409040E1F700C000008BB39CB345
S11301908F7D9CBB8BBB2FE986E891E0215080408A
S11301A09040E1F700C000008BB39CB38F7E9CBBF2
S11301B08BBB2FE986E891E0215080409040E1F725
S11301C000C000008BB39CB3877F9CBB8BBB2FE923
S11301D086E891E0215080409040E1F700C00000A3
S11301E08BB39CB38B7F9CBB8BBB2FE986E891E0E0
S11301F0215080409040E1F700C000008BB39CB3D5
S11302008D7F9CBB8BBB2FE986E891E02150804019
S11302109040E1F700C000008BB39CB38E7F9CBB81
S11302208BBB2FE986E891E0215080409040E1F7B4
S10D023000C000001FCFF894FFCFB8
S9030000FC
