S00D00007461736B322E7372656332
S11300000C942A000C9434000C9434000C943400A6
S11300100C9434000C9434000C9434000C9434008C
S11300200C9434000C9434000C9434000C9434007C
S11300300C9434000C9434000C9434000C9434006C
S11300400C9434000C9434000C9434000C9434005C
S11300500C94340011241FBECFE5D8E0DEBFCDBF21
S11300600E9436000C946E000C94000012BA11BA6F
S11300708FEF90E09BBB8ABB1CBA1BBA20E030E038
S11300802830310524F01CBA1BBA20E030E080B3DC
S113009091B38170992791BB80BB892B89F789E63D
S11300A098E10197F1F700C000004BB35CB381E025
S11300B090E0022E02C0880F991F0A94E2F7842B65
S11300C0952B9CBB8BBB2F5F3F4F80B391B381704B
S11300D0992791BB80BB892BC1F3D2CFF894FFCF72
S9030000FC
